{
  "transactions": [
    {
      "hash": "0x073888514cbc547488b2aaa06e6ea3ab6b39035695a814aa9ab0b7f2b7990d69",
      "transactionType": "CALL",
      "contractName": null,
      "contractAddress": "0x0128edcc2fd00498a1edc75f5dbd5b129ee170f1",
      "function": "mintNft(string)",
      "arguments": [
        "ipfs://bafybeig37ioir76s7mg5oobetncojcm3c3hxasyd4rvid4jqhy4gkaheg4/?filename=0-PUG.json"
      ],
      "transaction": {
        "from": "0x7b85a65ae33da5436e6950df506d51c1729e7878",
        "to": "0x0128edcc2fd00498a1edc75f5dbd5b129ee170f1",
        "gas": "0x3d60d",
        "value": "0x0",
        "input": "0xda86f4a900000000000000000000000000000000000000000000000000000000000000200000000000000000000000000000000000000000000000000000000000000057697066733a2f2f62616679626569673337696f6972373673376d67356f6f6265746e636f6a636d3363336878617379643472766964346a71687934676b61686567342f3f66696c656e616d653d302d5055472e6a736f6e000000000000000000",
        "nonce": "0x4a",
        "chainId": "0xaa36a7"
      },
      "additionalContracts": [],
      "isFixedGasLimit": false
    }
  ],
  "receipts": [
    {
      "status": "0x1",
      "cumulativeGasUsed": "0xb894ad",
      "logs": [
        {
          "address": "0x0128edcc2fd00498a1edc75f5dbd5b129ee170f1",
          "topics": [
            "0xddf252ad1be2c89b69c2b068fc378daa952ba7f163c4a11628f55a4df523b3ef",
            "0x0000000000000000000000000000000000000000000000000000000000000000",
            "0x0000000000000000000000007b85a65ae33da5436e6950df506d51c1729e7878",
            "0x0000000000000000000000000000000000000000000000000000000000000000"
          ],
          "data": "0x",
          "blockHash": "0x8132fc0195eff86af04e18293bb4bbe04a2556805676d094364cbc90be378696",
          "blockNumber": "0x6c2665",
          "transactionHash": "0x073888514cbc547488b2aaa06e6ea3ab6b39035695a814aa9ab0b7f2b7990d69",
          "transactionIndex": "0x63",
          "logIndex": "0x74",
          "removed": false
        }
      ],
      "logsBloom": "0x00000000000000000000040080000000000000000000000000000000000000000000000000000000000000000000000000000000000000000000000000000000000000000000000000000008000000000000000000004000000000000000000000000000020000000000000000000800000000000000000000000010000000000000000000000000000000000000000000000000000000000000100000000000000000000000000000000000000000000000000000000000000000000200000000000002000000000000000000000000000000000002000000000000000020000000000000000000000000000000000000000000000000000000000000000000",
      "type": "0x2",
      "transactionHash": "0x073888514cbc547488b2aaa06e6ea3ab6b39035695a814aa9ab0b7f2b7990d69",
      "transactionIndex": "0x63",
      "blockHash": "0x8132fc0195eff86af04e18293bb4bbe04a2556805676d094364cbc90be378696",
      "blockNumber": "0x6c2665",
      "gasUsed": "0x2c6fe",
      "effectiveGasPrice": "0x401e9524",
      "from": "0x7b85a65ae33da5436e6950df506d51c1729e7878",
      "to": "0x0128edcc2fd00498a1edc75f5dbd5b129ee170f1",
      "contractAddress": null
    }
  ],
  "libraries": [],
  "pending": [],
  "returns": {},
  "timestamp": 1731746725,
  "chain": 11155111,
  "commit": "7da5925"
}